:100000000C945D000C9485000C9485000C94850084
:100010000C9485000C9485000C9485000C9485004C
:100020000C9485000C9485000C9485000C9485003C
:100030000C9485000C9485000C9485000C9485002C
:100040000C94AE020C9485000C947C020C94560225
:100050000C9485000C9485000C9485000C9485000C
:100060000C9485000C94850000000008000201003B
:100070000003040700000000000000000000000072
:10008000250028002B0000000000240027002A0083
:10009000040404040404040402020202020203032E
:1000A0000303030301020408102040800102040836
:1000B0001020010204081020FE0411241FBECFEFFF
:1000C000D8E0DEBFCDBF22E0A0E4B1E001C01D92C8
:1000D000AE3EB207E1F711E0A0E0B1E0E8EBFEE0F0
:1000E00002C005900D92A034B107D9F710E0CDE51C
:1000F000D0E004C02197FE010E946205CC35D107F3
:10010000C9F70E94F8020C945A070C94000090E082
:10011000FC01EC55FF4F249180579F4FFC018491C7
:10012000882399F090E0880F991FFC01EA57FF4F50
:10013000A591B491FC01E458FF4F859194918FB73C
:10014000F894EC91E22BEC938FBF0895AF92BF929D
:10015000CF92DF92EF92FF920F931F93CF93DF9393
:100160006C017B018B01040F151FEB015E01AE18C2
:10017000BF08C017D10759F06991D601ED91FC91E4
:100180000190F081E02DC6010995892B79F7C50111
:10019000DF91CF911F910F91FF90EF90DF90CF9063
:1001A000BF90AF900895FC01538D448D252F30E012
:1001B000842F90E0821B930B541710F0CF96089574
:1001C00001970895FC01918D828D981761F0A28DA1
:1001D000AE0FBF2FB11D5D968C91928D9F5F9F7367
:1001E000928F90E008958FEF9FEF0895FC01918D1D
:1001F000828D981731F0828DE80FF11D858D90E08A
:1002000008958FEF9FEF0895FC01918D228D892F26
:1002100090E0805C9F4F821B91098F73992708950E
:100220008DE492E00E94040121E0892B09F420E092
:10023000822F089580E090E0892B29F00E94100120
:1002400081110C9400000895FC01A48DA80FB92F12
:10025000B11DA35ABF4F2C91848D90E001968F73EE
:100260009927848FA689B7892C93A089B1898C910D
:10027000837080648C93938D848D981306C002885C
:10028000F389E02D80818F7D80830895EF92FF9226
:100290000F931F93CF93DF93EC0181E0888F9B8DA9
:1002A0008C8D98131AC0E889F989808185FF15C063
:1002B0009FB7F894EE89FF896083E889F989808186
:1002C0008370806480839FBF81E090E0DF91CF9155
:1002D0001F910F91FF90EF900895F62E0B8D10E077
:1002E0000F5F1F4F0F731127E02E8C8D8E110CC0E6
:1002F0000FB607FCFACFE889F989808185FFF5CF31
:10030000CE010E942401F1CFEB8DEC0FFD2FF11DEA
:10031000E35AFF4FF0829FB7F8940B8FEA89FB896D
:1003200080818062CFCFCF93DF93EC01888D8823CB
:10033000B9F0AA89BB89E889F9898C9185FD03C048
:10034000808186FD0DC00FB607FCF7CF8C9185FF2D
:10035000F2CF808185FFEDCFCE010E942401E9CF4D
:10036000DF91CF91089590E0FC01E859FF4F24916F
:10037000FC01EC55FF4F3491FC01E057FF4FE49135
:10038000EE23C9F0222339F0233001F1A8F4213003
:1003900019F1223029F1F0E0EE0FFF1FE458FF4F72
:1003A000A591B4918FB7F894EC91611126C0309566
:1003B0003E233C938FBF08952730A9F02830C9F021
:1003C000243049F7809180008F7D03C080918000A8
:1003D0008F7780938000DFCF84B58F7784BDDBCFAC
:1003E00084B58F7DFBCF8091B0008F778093B00074
:1003F000D2CF8091B0008F7DF9CF3E2BDACF3FB7BF
:10040000F8948091450190914601A0914701B091E7
:10041000480126B5A89B05C02F3F19F00196A11DE4
:10042000B11D3FBFBA2FA92F982F8827BC01CD013E
:10043000620F711D811D911D42E0660F771F881F9D
:10044000991F4A95D1F708958F929F92AF92BF92CC
:10045000CF92DF92EF92FF924B015C010E94FF016D
:100460006B017C010E94FF016C197D098E099F09B7
:10047000683E734081059105A8F321E0821A910836
:10048000A108B10888EEC80E83E0D81EE11CF11C5B
:1004900081149104A104B10429F7FF90EF90DF903B
:1004A000CF90BF90AF909F908F9008951F920F9222
:1004B0000FB60F9211242F933F934F935F936F9337
:1004C0007F938F939F93AF93BF93EF93FF938DE4AD
:1004D00092E00E942401FF91EF91BF91AF919F9113
:1004E0008F917F916F915F914F913F912F910F90DD
:1004F0000FBE0F901F9018951F920F920FB60F927C
:1005000011242F938F939F93EF93FF93E0915D02BC
:10051000F0915E028081E0916302F091640282FDBD
:100520001BC09081809166028F5F8F73209167025C
:10053000821741F0E0916602F0E0E35BFD4F958F9A
:1005400080936602FF91EF919F918F912F910F9071
:100550000FBE0F901F9018958081F4CF1F920F92BD
:100560000FB60F9211242F933F938F939F93AF93C6
:10057000BF938091410190914201A0914301B091BC
:1005800044013091400123E0230F2D3758F50196A7
:10059000A11DB11D20934001809341019093420120
:1005A000A0934301B093440180914501909146018D
:1005B000A0914701B09148010196A11DB11D809302
:1005C000450190934601A0934701B0934801BF9124
:1005D000AF919F918F913F912F910F900FBE0F90F0
:1005E0001F90189526E8230F0296A11DB11DD2CFAA
:1005F000CF93DF93CDB7DEB7E2970FB6F894DEBFA7
:100600000FBECDBF789484B5826084BD84B581600F
:1006100084BD85B5826085BD85B5816085BD8091CD
:100620006E00816080936E00109281008091810045
:10063000826080938100809181008160809381003D
:10064000809180008160809380008091B1008460FF
:100650008093B1008091B00081608093B000809160
:100660007A00846080937A0080917A00826080931F
:100670007A0080917A00816080937A0080917A007C
:10068000806880937A001092C100EBE4F1E030E0E2
:1006900020E040E7822F98E0582F880F57FD8427ED
:1006A0009150D1F781932F5F3F4F211581E038079B
:1006B00089F764EF71E080E090E00E942402E0910D
:1006C0005D02F0915E0282E08083E0915902F09138
:1006D0005A021082E0915B02F0915C028AE880830A
:1006E00010926502E0916102F091620286E08083DF
:1006F000E0915F02F0916002808180618083E091EF
:100700005F02F0916002808188608083E0915F02E7
:10071000F0916002808180688083E0915F02F091B7
:10072000600280818F7D808382E00E94870060E08C
:1007300082E00E94B3011FB7F894809149018111B2
:1007400024C0EAE9F0E08491EEEAF0E09491E82F29
:10075000F0E0EE0FFF1FEA57FF4FA591B491EC9127
:10076000E92321F461E08AE00E94B3018AE00E945B
:1007700087008CB580618CBD8CB580648CBD8DE0AC
:100780000E9487008BE00E948700809149018F5F63
:10079000809349011FBF34E0C32ED12C20E0A22E4C
:1007A00020E0B22E90E2992E8DE492E00E940401A6
:1007B000892B09F48CC08DE492E00E94E200853A16
:1007C00009F085C064E170E080E090E00E942402BE
:1007D000E0914B02F0914C02EE0FFF1FE85EFE4FDE
:1007E0006080718061147104D1F1F30101900020E7
:1007F000E9F731978F0106191709B8016F5F7F4F2D
:1008000090E080E00E948D067C01009769F1DC0198
:100810001C92B3010E94530780E090E065E5492FE8
:1008200050E04017510718F5823308F5292F23703F
:1008300009F459C04E0D5F1DE114F10421F410922A
:100840004A014AE451E0E1E0F0E0EC0FFD1FE80F5F
:10085000F11DDA012C9120839F5F8F5FE0CF10E0C4
:1008600000E0F12CE12CD8CF10E000E0D5CF0370F0
:1008700011270115110509F072C0E114F10419F0F6
:10088000C7010E94040661E082E00E94B30142E3D6
:1008900050E0BE016F5F7F4F8DE492E00E94A600A2
:1008A00064E670E080E090E00E94240260E082E074
:1008B0000E94B30180914B0290914C0201968430CA
:1008C000910509F496C090934C0280934B02A114B9
:1008D000B10409F469CF0E941001882309F462CFA2
:1008E0000E9400005BCF992309F4A4CF282F30E0A9
:1008F000EDEFFFEFEC0FFD1FE20FF31FE081F0E0E3
:10090000E55BFE4FAEEFBFEFAC0FBD1FA20FB31FF5
:100910007081AC91A727B0E0EFEFFFEFEC0FFD1F68
:10092000E20FF31FA55BBE4FE0817C91E727F0E06B
:10093000DE01A20FB31FE55BFE4F7C91E081E7274C
:10094000F0E0E55BFE4F7081E1E0F0E0EC0FFD1FB1
:10095000E20FF31F372F362730838F5F6BCF90E086
:10096000A601401B510B282F290F30E0A1E0B0E079
:10097000AC0FBD1FA20FB31F941715061CF49C9259
:100980009F5FF1CFEDEFFFEFEC0FFD1FE20FF31FC5
:10099000E081F0E0E55BFE4F8EEF9FEF8C0F9D1F37
:1009A000820F931F4081FC018081E42FE827F0E053
:1009B0008FEF9FEF8C0F9D1F820F931FAF01455B41
:1009C0005E4FFC018081FA019081892790E02C0F15
:1009D0003D1F855B9E4FF9012081FC018081E22F44
:1009E000E827F0E0E55BFE4F808195E589278C9351
:1009F00044CF10924C0210924B0269CFEDE4F2E02A
:100A00001382128288EE93E0A0E0B0E084839583A5
:100A1000A683B7838AE091E09183808385EC90E0A0
:100A20009587848784EC90E09787868780EC90E0B8
:100A3000918B808B81EC90E0938B828B82EC90E0A9
:100A4000958B848B86EC90E0978B868B118E128E23
:100A5000138E148E08952F923F924F925F926F9251
:100A60007F928F929F92AF92BF92CF92DF92EF923E
:100A7000FF920F931F93CF93DF93CDB7DEB7CA1BBF
:100A8000DB0B0FB6F894DEBF0FBECDBF09942A88EA
:100A9000398848885F846E847D848C849B84AA8492
:100AA000B984C884DF80EE80FD800C811B81AA811F
:100AB000B981CE0FD11D0FB6F894DEBF0FBECDBFEA
:100AC000ED010895EE0FFF1F0590F491E02D0994BC
:100AD0000F931F93CF93DF938230910510F482E040
:100AE00090E0E091EC02F091ED0230E020E0B0E027
:100AF000A0E0309799F42115310509F44AC0281B6C
:100B0000390B24303105D8F58A819B816115710537
:100B100089F1FB0193838283FE0111C040815181E1
:100B20000281138148175907E0F04817590799F4D3
:100B3000109761F012960C93129713961C933296AD
:100B4000CF01DF91CF911F910F9108950093EC0297
:100B50001093ED02F4CF2115310551F042175307E0
:100B600038F0A901DB019A01BD01DF01F801C1CF15
:100B7000EF01F9CF9093ED028093EC02CDCFFE010F
:100B8000E20FF31F81939193225031093983288317
:100B9000D7CF2091EA023091EB02232B41F4209130
:100BA0000201309103013093EB022093EA0220917D
:100BB0000001309101012115310541F42DB73EB7F7
:100BC0004091040150910501241B350BE091EA028C
:100BD000F091EB02E217F307A0F42E1B3F0B28174E
:100BE000390778F0AC014E5F5F4F2417350748F0A6
:100BF0004E0F5F1F5093EB024093EA028193919353
:100C00009FCFF0E0E0E09CCFCF93DF930097E9F037
:100C1000FC01329713821282A091EC02B091ED0296
:100C2000ED0130E020E01097A1F420813181820FA6
:100C3000931F2091EA023091EB022817390709F03F
:100C400061C0F093EB02E093EA02DF91CF91089547
:100C5000EA01CE17DF07E8F54A815B819E01411565
:100C60005105B1F7E901FB83EA8349915991C40F1A
:100C7000D51FEC17FD0761F4808191810296840FE6
:100C8000951FE90199838883828193819B838A835D
:100C9000F0E0E0E012968D919C9113970097B9F5E2
:100CA0002D913C911197CD010296820F931F2091B7
:100CB000EA023091EB022817390739F6309751F5DF
:100CC0001092ED021092EC02B093EB02A093EA02B4
:100CD000BCCFD383C28340815181840F951FC81735
:100CE000D90761F44E5F5F4F88819981480F591F82
:100CF000518340838A819B819383828321153105AF
:100D000009F0B0CFF093ED02E093EC029ECFFD012D
:100D1000DC01C0CF13821282D7CFB0E0A0E0E3E9BC
:100D2000F6E00C942D058C01009751F4CB010E9444
:100D300068058C01C801CDB7DEB7E0E10C94490528
:100D4000FC01E60FF71F9C0122503109E217F3075F
:100D500008F49DC0D901CD91DC911197C617D70732
:100D600098F0C530D10530F3CE0104978617970768
:100D700008F3C61BD70B2297C193D1936D937C9335
:100D8000CF010E940406D6CF5B01AC1ABD0A4C010C
:100D90008C0E9D1EA091EC02B091ED02512C412CC5
:100DA000F12CE12C109731F58091EA029091EB0241
:100DB0008815990509F05CC04616570608F058C01A
:100DC0008091000190910101009741F48DB79EB789
:100DD0004091040150910501841B950BE817F90718
:100DE00008F055C0F093EB02E093EA02F901718339
:100DF0006083A0CF8D919C91119712966C90129761
:100E000013967C901397A815B90559F56C0142E02B
:100E1000C40ED11CCA14DB0420F1AC014A195B09D1
:100E2000DA011296159780F06282738251834083B3
:100E3000D9016D937C93E114F10471F0D7011396FD
:100E4000FC93EE93129776CF22968C0F9D1FF9019B
:100E500091838083F301EFCFF093ED02E093EC02F6
:100E600069CF4816590608F42C017D01D3019ACFA9
:100E7000CB010E9468057C01009749F0AE01B801E2
:100E80000E944A07C8010E940406870153CF10E060
:100E900000E050CFFB01DC0102C001900D924150F7
:100EA0005040D8F70895FB01DC0101900D9200201D
:080EB000E1F70895F894FFCF6B
:100EB8000000EE028000000000004601A600D300FA
:100EC80093010401E200F600220128012E013401F9
:100ED8003A0132352E30300033302E303000323780
:100EE8002E30300033312E30300033322E30300087
:00000001FF
