:020000020000FC
:020000006BC0D3
:1000800000C040FD03D050FD14D01895E8EDF0E01D
:100090000027E60FF01F0491009308016395693073
:1000A00009F0089540E0662700E00093080100276A
:1000B0000895E0EEF0E00027E70FF01F04910093B1
:1000C0000B017395793009F0089550E0772700E02F
:1000D00000930B01002708958040201008040201BE
:1000E00001041040020820800FEF0DBF01E20EBF97
:1000F0000FEF10E00093070100930A01109308012D
:1001000010930B0101E010EA01B912B900E000936D
:1001100090000DE00093910002E0009371000FEF5A
:100120001FEF109398000093990000271127442790
:100130005527662777278827992740E050E078944D
:10014000059B03D0079B12D0FBCF109A40FD08C03F
:1001500040FF03C01CD01098089541E060E0FACF42
:1001600040E0662700E000930801F4CF109A50FDAC
:1001700008C050FF03C00BD01098089551E070E004
:10018000FACF50E0772700E000930B01F4CF8FEF18
:0801900081509040E8F708954A
:00000001FF
