:100000000C9428010C9459010C9459010C94590139
:100010000C9459010C9459010C9459010C945901F8
:100020000C9459010C9459010C9459010C945901E8
:100030000C9459010C9459010C9459010C945901D8
:100040000C9459010C9459010C9459010C945901C8
:100050000C9459010C9459010C9459010C942005ED
:100060000C9459010C94EA040C94C0040C945901AA
:100070000C9459010C9459010C9459010C94590198
:100080000C9459010C9459010C9459010C94590188
:100090000C948A040C9460040C9459010C9459013A
:1000A0000C9459010C9459010C9459010C94590168
:1000B0000C9459010C9459010C9459010C94590158
:1000C0000C9459010C9459010C9459010C94590148
:1000D0000C9459010C9459010C9459010C94590138
:1000E0000C9459010C946A050C94D3010C94DD0115
:1000F0000C94B3010C94D6020C94AA010C94100237
:100100000C948C010C941F020C9428030C94AD01E8
:100110000C9487010C94E3010C94C5010C94C1016B
:100120000C94A6010C9486020C94B7010C94D9018E
:100130000C94CF010C9494020C949E010C94CB016E
:100140000C94A2010C94BD010000210024002700A2
:100150002A002D00300033000101000004010701D6
:100160000A0100002200250028002B002E0031008B
:10017000340002010000050108010B010505050519
:10018000070508080808020202020A0A080804040F
:10019000040401010101010101010303030303033D
:1001A0000303040707070C0C0C0C0C0C0C0C0202CC
:1001B000020206060606060606060B0B0B0B0B0BC9
:1001C0000B0B010210202008081020401020408056
:1001D000020102010804020101020408102040800B
:1001E0008040201008040201800402018040201099
:1001F00008040201080402010102040810204080E2
:10020000010204081020408000000A0B02090C0DB6
:100210000E080703040100000000000000000000B9
:1002200000000000000000000000000000000000CE
:10023000000000001211100000000000000000008B
:1002400000000000000000000000000000006A053F
:1002500011241FBECFEFD1E2DEBFCDBF00E00CBF47
:1002600024E0A2E1B2E001C01D92A535B207E1F79A
:1002700012E0A0E0B2E0E8EAFEE000E00BBF02C05E
:1002800007900D92A231B107D9F711E0C8E2D1E091
:1002900000E006C021970109802FFE010E94360769
:1002A000C732D10780E00807A9F70E94BD050C946A
:1002B00052070C940000382FECE1F2E08491E6ED57
:1002C000F1E02491E0E9F1E09491992309F435C03B
:1002D000882311F181508231F8F4E82FF0E088276B
:1002E000EB58FE4F8F4F0C943607A601AA018701E9
:1002F0009E01A2018C01AD01B301B701BD01C10195
:10030000C501CB01CF018C01D301D901DD01809161
:1003100080008F7780938000E92FF0E0EE0FFF1FC1
:10032000EE59FE4FA591B4918FB7F894EC9131112D
:1003300048C020952E232C938FBF08958091800074
:100340008F7DE8CF80918000877FE4CF84B58F7761
:1003500084BDE2CF84B58F7DFBCF8091B0008F77D5
:100360008093B000D9CF8091B0008F7DF9CF80917C
:1003700090008F7780939000CFCF809190008F7DF9
:10038000F9CF80919000877FF5CF8091A0008F7783
:100390008093A000C1CF8091A0008F7DF9CF809184
:1003A000A000877FF5CF809120018F778093200177
:1003B000B3CF809120018F7DF9CF80912001877F7D
:1003C000F5CF2E2BB8CFAF92BF92CF92DF92EF92A4
:1003D000FF920F931F93CF93DF936C017B018B01EF
:1003E000040F151FEB015E01AE18BF08C017D1073F
:1003F00059F06991D601ED91FC910190F081E02DC9
:10040000C6011995892B79F7C501DF91CF911F910D
:100410000F91FF90EF90DF90CF90BF90AF90089535
:10042000FC01538D448D252F30E0842F90E0821BFA
:10043000930B541710F0CF96089501970895FC017F
:10044000918D828D981761F0A28DAE0FBF2FB11DD7
:100450005D968C91928D9F5F9F73928F90E008952F
:100460008FEF9FEF08950F931F93CF93DF938C012E
:10047000D0E0C0E02FB7F894809117039091180353
:10048000A0911903B0911A032FBF80932303909377
:100490002403A0932503B09326038BE193E00E94ED
:1004A0001F0297FF2AC02FB7F894809117039091ED
:1004B0001803A0911903B0911A032FBF4091230391
:1004C000509124036091250370912603841B950BA2
:1004D000A60BB70B40911F0350912003609121039D
:1004E0007091220384179507A607B707B0F2CE01D3
:1004F000DF91CF911F910F910895F80181938F01A2
:100500002196C233D10509F0B5CFF1CFFC01918D11
:10051000828D981731F0828DE80FF11D858D90E066
:1005200008958FEF9FEF0895FC01918D228D892F03
:1005300090E0805C9F4F821B91098F7399270895EB
:100540008BE193E00E94940221E0892B09F420E0E2
:10055000822F089588EB93E00E94940221E0892B7A
:1005600009F420E0822F0895FC01A48DA80FB92F73
:10057000B11DA35ABF4F2C91848D90E001968F73CB
:100580009927848FA689B7892C93A089B1898C91EA
:10059000837080648C93938D848D981306C0028839
:1005A000F389E02D80818F7D80830895EF92FF9203
:1005B0000F931F93CF93DF93EC0181E0888F9B8D86
:1005C0008C8D98131AC0E889F989808185FF15C040
:1005D0009FB7F894EE89FF896083E889F989808163
:1005E0008370806480839FBF81E090E0DF91CF9132
:1005F0001F910F91FF90EF900895F62E0B8D10E054
:100600000F5F1F4F0F731127E02E8C8D8E110CC0C2
:100610000FB607FCFACFE889F989808185FFF5CF0D
:10062000CE010E94B402F1CFEB8DEC0FFD2FF11D36
:10063000E35AFF4FF0829FB7F8940B8FEA89FB894A
:1006400080818062CFCF682F88EB93E00C94D60234
:10065000CF93DF93EC01888D8823B9F0AA89BB89F9
:10066000E889F9898C9185FD03C0808186FD0DC0E4
:100670000FB607FCF7CF8C9185FFF2CF808185FF05
:10068000EDCFCE010E94B402E9CFDF91CF91089562
:1006900080E090E0892B29F00E94AA0281110E943B
:1006A000000080E090E0892B29F00E94A0028111D7
:1006B0000E94000080E090E0892B49F080E090E00B
:1006C000892B29F00E94000081110E94000080E027
:1006D00090E0892B49F080E090E0892B29F00E947E
:1006E000000081110C94000008953FB7F8948091A8
:1006F000130290911402A0911502B091160226B532
:10070000A89B05C02F3F19F00196A11DB11D3FBF49
:10071000BA2FA92F982F8827BC01CD01620F711D18
:10072000811D911D42E0660F771F881F991F4A9512
:10073000D1F708958F929F92AF92BF92CF92DF929E
:10074000EF92FF920E9475034B015C018AE0C82E74
:10075000D12CE12CF12C0E947503681979098A09C2
:100760009B09683E734081059105A8F321E0C21AF8
:10077000D108E108F10888EE880E83E0981EA11CDC
:10078000B11CC114D104E104F10429F7FF90EF90EA
:10079000DF90CF90BF90AF909F908F900895CF93B0
:1007A000C82F81E00E945B016C2F8BE193E00E94D7
:1007B000D6020E949A0380E0CF910C945B01EF92E5
:1007C000FF920F931F93CF93DF93EC018B0121E0F6
:1007D00030E0F0E0E0E085E0E82EF12CC901B7015F
:1007E0000E942207892B51F0D9011197A00FB11F48
:1007F0008C91DE01AE0FBF1F8C9331962F5F3F4F60
:100800002333310559F7DF91CF911F910F91FF905D
:10081000EF900895DF92EF92FF920F931F93CF9383
:10082000DF9300D01F92CDB7DEB79C012450310971
:1008300001E010E085E0E82EF12C95E5D92EF901D4
:1008400044814423D9F1C801B7010E942207892BB2
:1008500071F56081698381818A83A281AB83538131
:100860005C8370E0695E7D4FFB019081892790E099
:10087000895E9D4FFC018081A827B0E0A95EBD4F35
:100880008C91E52FE827F0E0E95EFD4F80818D2512
:10089000481769F081E00F900F900F900F90DF9153
:1008A000CF911F910F91FF90EF90DF9008950F5F10
:1008B0001F4F2F5F3F4F0333110509F680E0EBCF49
:1008C0001F920F920FB60F9211240BB60F922F9317
:1008D0003F934F935F936F937F938F939F93AF93C8
:1008E000BF93EF93FF938BE193E00E94B402FF91DB
:1008F000EF91BF91AF919F918F917F916F915F9198
:100900004F913F912F910F900BBE0F900FBE0F9004
:100910001F9018951F920F920FB60F9211240BB6CD
:100920000F922F938F939F93EF93FF93E0912B035D
:10093000F0912C038081E0913103F091320382FD2C
:100940001DC09081809134038F5F8F732091350398
:10095000821741F0E0913403F0E0E55EFC4F958FA3
:1009600080933403FF91EF919F918F912F910F907E
:100970000BBE0F900FBE0F901F9018958081F2CF85
:100980001F920F920FB60F9211240BB60F922F9356
:100990003F934F935F936F937F938F939F93AF9307
:1009A000BF93EF93FF9388EB93E00E94B402FF9113
:1009B000EF91BF91AF919F918F917F916F915F91D7
:1009C0004F913F912F910F900BBE0F900FBE0F9044
:1009D0001F9018951F920F920FB60F9211240BB60D
:1009E0000F922F938F939F93EF93FF93E091C80300
:1009F000F091C9038081E091CE03F091CF0382FD95
:100A00001DC090818091D1038F5F8F732091D2039D
:100A1000821741F0E091D103F0E0E854FC4F958F4C
:100A20008093D103FF91EF919F918F912F910F9020
:100A30000BBE0F900FBE0F901F9018958081F2CFC4
:100A40001F920F920FB60F9211242F933F938F9303
:100A50009F93AF93BF938091170390911803A09138
:100A60001903B0911A033091120223E0230F2D379E
:100A700058F50196A11DB11D209312028093170312
:100A800090931803A0931903B0931A038091130253
:100A900090911402A0911502B09116020196A11D29
:100AA000B11D8093130290931402A0931502B0938A
:100AB0001602BF91AF919F918F913F912F910F900F
:100AC0000FBE0F901F90189526E8230F0296A11DC8
:100AD000B11DD2CFEBE1F3E01382128248EE53E076
:100AE00060E070E0448355836683778384E092E01E
:100AF000918380832DEC30E0358724872CEC30E027
:100B00003787268728EC30E0318B208B29EC30E0CA
:100B1000338B228B2AEC30E0358B248B2EEC30E0AB
:100B2000378B268B118E128E138E148EE8EBF3E02A
:100B300013821282448355836683778391838083F3
:100B400085EC90E09587848784EC90E09787868792
:100B500080EC90E0918B808B81EC90E0938B828B8A
:100B600082EC90E0958B848B86EC90E0978B868B63
:100B7000118E128E138E148E0895CF93DF93CDB7FE
:100B8000DEB7C456D1090FB6F894DEBF0FBECDBF95
:100B9000789484B5826084BD84B5816084BD85B558
:100BA000826085BD85B5816085BD80916E00816064
:100BB00080936E001092810080918100826080930A
:100BC000810080918100816080938100809180000C
:100BD0008160809380008091B10084608093B10037
:100BE0008091B00081608093B0008091910082601C
:100BF0008093910080919100816080939100809119
:100C000090008160809390008091A1008260809329
:100C1000A1008091A10081608093A1008091A0003B
:100C200081608093A00080912101826080932101E6
:100C30008091210181608093210180912001816058
:100C40008093200180917A00846080937A00809163
:100C50007A00826080937A0080917A00816080932C
:100C60007A0080917A00806880937A001092C100A7
:100C7000E7E1F2E030E020E040E7822F98E0582FF3
:100C8000880F57FD84279150D1F781932F5F3F4FF5
:100C9000211581E0380789F7E091C803F091C90375
:100CA00022E02083E091C403F091C5031082E0911B
:100CB000C603F091C7038FEC80831092D003E091BC
:100CC000CC03F091CD0396E09083E091CA03F091BC
:100CD000CB03808180618083E091CA03F091CB03D4
:100CE000808188608083E091CA03F091CB0380818A
:100CF00080688083E091CA03F091CB0380818F7D6F
:100D00008083E0912B03F0912C032083E091270353
:100D1000F09128031082E0912903F0912A038AE8D8
:100D2000808310923303E0912F03F091300390837E
:100D3000E0912D03F0912E03808180618083E0910A
:100D40002D03F0912E03808188608083E0912D0334
:100D5000F0912E03808180688083E0912D03F091D3
:100D60002E0380818F7D8083E6EDF1E02491E0E920
:100D7000F1E08491882399F090E0880F991FFC019D
:100D8000E85BFE4FA591B491FC01EE59FE4F8591B1
:100D900094918FB7F894EC91E22BEC938FBF0E9463
:100DA0009A0388EB93E00E949402892B79F188EBF7
:100DB00093E00E941F02813A910559F58BE90E9448
:100DC000CF03CE01C3960E943302CE01C3960E9488
:100DD0000A04182FBE016D5C7F4FCE0101960E9460
:100DE000DF0381EA90E00E94230342E350E0BE016A
:100DF0006F5F7F4F88EB93E00E94E30181E090E01A
:100E0000111102C090E080E00E9423030E94480379
:100E1000C8CF813B9105D1F785EA0E94CF03CE016F
:100E2000C3960E943302CE01C3960E940A04182F73
:100E3000BE016D5C7F4FCE0101960E94DF0381EB06
:100E400090E0D1CF97FB072E16F4009407D077FDE2
:100E500009D00E943E0707FC05D03EF4909581958D
:100E60009F4F0895709561957F4F0895EE0FFF1F76
:100E7000881F8BBF0790F691E02D1994AA1BBB1B0E
:100E800051E107C0AA1FBB1FA617B70710F0A61B8A
:100E9000B70B881F991F5A95A9F780959095BC01AB
:080EA000CD010895F894FFCF85
:100EA80000000000D602E3011002280394021F028A
:020EB8008602B0
:00000001FF
