:020000040000FA
:100000000C945D000C9485000C9485000C94850084
:100010000C9485000C9485000C9485000C9485004C
:100020000C9485000C9485000C9485000C9485003C
:100030000C9485000C9485000C9485000C9485002C
:100040000C94AE020C9485000C947C020C94560225
:100050000C9485000C9485000C9485000C9485000C
:100060000C9485000C9485000000000024002700FB
:100070002A0000000000250028002B0004040404CE
:100080000404040402020202020203030303030342
:10009000010204081020408001020408102001021F
:1000A00004081020000000080002010000030407FB
:1000B0000000000000000000D40411241FBECFEF98
:1000C000D8E0DEBFCDBF22E0A8E3B1E001C01D92C1
:1000D000A43EB207E1F711E0A0E0B1E0E4E6FEE003
:1000E00002C005900D92A833B107D9F710E0CDE515
:1000F000D0E004C02197FE010E943805CC35D1071D
:10010000C9F70E94F8020C9430070C940000E6EA4C
:10011000F0E02491E2E9F0E09491EEE7F0E0E49180
:10012000EE23C9F0222339F0233001F1A8F4213065
:1001300019F1223029F1F0E0EE0FFF1FEE58FF4FCA
:10014000A591B4912FB7F894EC91811126C09095A8
:100150009E239C932FBF08952730A9F02830C9F023
:10016000243049F7209180002F7D03C0209180002A
:100170002F7720938000DFCF24B52F7724BDDBCFEE
:1001800024B52F7DFBCF2091B0002F772093B000B6
:10019000D2CF2091B0002F7DF9CF9E2BDACFAF9236
:1001A000BF92CF92DF92EF92FF920F931F93CF9364
:1001B000DF936C017B018B01040F151FEB015E01C6
:1001C000AE18BF08C017D10759F06991D601ED915B
:1001D000FC910190F081E02DC6010995892B79F7FA
:1001E000C501DF91CF911F910F91FF90EF90DF90AC
:1001F000CF90BF90AF900895FC01538D448D252F73
:1002000030E0842F90E0821B930B541710F0CF96B0
:10021000089501970895FC01918D828D981761F0E2
:10022000A28DAE0FBF2FB11D5D968C91928D9F5FF9
:100230009F73928F90E008958FEF9FEF0895FC01D8
:10024000918D828D981731F0828DE80FF11D858D8B
:1002500090E008958FEF9FEF0895FC01918D228D1E
:10026000892F90E0805C9F4F821B91098F739927A3
:10027000089583E492E00E942D0121E0892B09F486
:1002800020E0822F089580E090E0892B29F00E94E1
:10029000390181110C9400000895FC01A48DA80F70
:1002A000B92FB11DA35ABF4F2C91848D90E00196B8
:1002B0008F739927848FA689B7892C93A089B189D8
:1002C0008C91837080648C93938D848D981306C079
:1002D0000288F389E02D80818F7D80830895EF92DD
:1002E000FF920F931F93CF93DF93EC0181E0888FF0
:1002F0009B8D8C8D98131AC0E889F989808185FFC0
:1003000015C09FB7F894EE89FF896083E889F98961
:1003100080818370806480839FBF81E090E0DF9163
:10032000CF911F910F91FF90EF900895F62E0B8DB6
:1003300010E00F5F1F4F0F731127E02E8C8D8E1171
:100340000CC00FB607FCFACFE889F989808185FFD8
:10035000F5CFCE010E944D01F1CFEB8DEC0FFD2FBB
:10036000F11DE35AFF4FF0829FB7F8940B8FEA8993
:10037000FB8980818062CFCFCF93DF93EC01888DA2
:100380008823B9F0AA89BB89E889F9898C9185FD10
:1003900003C0808186FD0DC00FB607FCF7CF8C919E
:1003A00085FFF2CF808185FFEDCFCE010E944D0108
:1003B000E9CFDF91CF9108953FB7F89480913D0147
:1003C00090913E01A0913F01B091400126B5A89BBC
:1003D00005C02F3F19F00196A11DB11D3FBFBA2FD7
:1003E000A92F982F8827BC01CD01620F711D811D97
:1003F000911D42E0660F771F881F991F4A95D1F71C
:1004000008958F929F92AF92BF92CF92DF92EF9218
:10041000FF924B015C010E94DC016B017C010E9498
:10042000DC016C197D098E099F09683E73408105C6
:100430009105A8F321E0821A9108A108B10888EE7D
:10044000C80E83E0D81EE11CF11C81149104A104A4
:10045000B10429F7FF90EF90DF90CF90BF90AF905D
:100460009F908F9008950F931F93FC01E60FF11D4D
:10047000808101E010E020E030E0042E04C0000F95
:10048000111F221F331F0A94D2F7682F70E002C099
:10049000759567954A95E2F760FD05C0082B0083C6
:1004A0001F910F91089500950823F9CF1F920F9285
:1004B0000FB60F9211242F933F934F935F936F9337
:1004C0007F938F939F93AF93BF93EF93FF9383E4B7
:1004D00092E00E944D01FF91EF91BF91AF919F91EA
:1004E0008F917F916F915F914F913F912F910F90DD
:1004F0000FBE0F901F9018951F920F920FB60F927C
:1005000011242F938F939F93EF93FF93E0915302C6
:10051000F09154028081E0915902F0915A0282FDDB
:100520001BC0908180915C028F5F8F7320915D0270
:10053000821741F0E0915C02F0E0ED5BFD4F958F9A
:1005400080935C02FF91EF919F918F912F910F907B
:100550000FBE0F901F9018958081F4CF1F920F92BD
:100560000FB60F9211242F933F938F939F93AF93C6
:10057000BF938091390190913A01A0913B01B091D4
:100580003C013091380123E0230F2D3758F50196B7
:10059000A11DB11D209338018093390190933A0138
:1005A000A0933B01B0933C0180913D0190913E01AD
:1005B000A0913F01B09140010196A11DB11D809312
:1005C0003D0190933E01A0933F01B0934001BF9144
:1005D000AF919F918F913F912F910F900FBE0F90F0
:1005E0001F90189526E8230F0296A11DB11DD2CFAA
:1005F000CF93DF93CDB7DEB7E2970FB6F894DEBFA7
:100600000FBECDBF789484B5826084BD84B581600F
:1006100084BD85B5826085BD85B5816085BD8091CD
:100620006E00816080936E00109281008091810045
:10063000826080938100809181008160809381003D
:10064000809180008160809380008091B1008460FF
:100650008093B1008091B00081608093B000809160
:100660007A00846080937A0080917A00826080931F
:100670007A0080917A00816080937A0080917A007C
:10068000806880937A001092C100E2E4F1E030E0EB
:1006900020E040E7822F98E0582F880F57FD8427ED
:1006A0009150D1F781932F5F3F4F211581E038079B
:1006B00089F7E0915302F091540282E08083E09147
:1006C0004F02F09150021082E0915102F0915202DB
:1006D0008AE8808310925B02E0915702F091580201
:1006E00086E08083E0915502F0915602808180611E
:1006F0008083E0915502F09156028081886080836A
:10070000E0915502F0915602808180688083E091EB
:100710005502F091560280818F7D8083E2E9F0E0FE
:100720002491EEE7F0E08491882399F090E0880F1F
:10073000991FFC01E859FF4FA591B491FC01EE58B7
:10074000FF4F859194918FB7F894EC91E22BEC9345
:100750008FBF80E00E94870024E0E22EF12C90E21F
:10076000D92E83E492E00E942D01892B09F473C0F5
:1007700083E492E00E940B018B3909F06CC064E1C4
:1007800070E080E090E00E94010260E270E090E0A2
:1007900080E00E9463068C0150E040E0009741F049
:1007A000DC011C9268E171E00E9429074FE150E0F2
:1007B00020E030E085E5C82E632F70E064177507F0
:1007C000D8F42233C8F4832F837009F451C0600F2A
:1007D000711F0115110521F41092410161E471E0CE
:1007E000E1E0F0E0EC0FFD1FE20FF11DDB018C9169
:1007F00080833F5F2F5FE0CF437055274115510540
:1008000009F072C00115110519F0C8010E94DA053E
:1008100010914202113009F0ADC040E065E2CE0116
:1008200001960E9433021F5F1093420281E00E94F2
:10083000870042E350E0BE016F5F7F4F83E492E0A8
:100840000E94CF0064E670E080E090E00E94010228
:1008500080E00E94870080E090E0892B09F481CF3E
:100860000E943901882309F47ACF0E94000077CFD3
:10087000332309F4ACCF822F90E0EDEFFFEFEC0FC4
:10088000FD1FE80FF91FE081F0E0EE5BFE4FAEEFD9
:10089000BFEFAC0FBD1FA80FB91FE081FC91EF2780
:1008A000F0E0AFEFBFEFAC0FBD1FA80FB91FEE5BBD
:1008B000FE4FAC91E081AE27B0E0FE01E80FF91FDA
:1008C000AE5BBE4FE081FC91EF27F0E0EE5BFE4FA8
:1008D000E081A1E0B0E0AC0FBD1F8A0F9B1FEC25AB
:1008E000DC01EC932F5F73CF30E0B701641B750B15
:1008F000822F830F90E041E050E04C0F5D1F480FC6
:10090000591F3617170624F4FA01D0823F5FF0CF43
:10091000EDEFFFEFEC0FFD1FE80FF91FE081F0E0B6
:10092000EE5BFE4FAEEFBFEFAC0FBD1FA80FB91FC0
:10093000E0812C91E227F0E0AFEFBFEFAC0FBD1FDD
:10094000A80FB91FEE5BFE4FAC912081A227B0E04B
:100950008C0F9D1FAE5BBE4FFC0190818C91E92FE7
:10096000E827F0E0EE5BFE4F808195E58927DA010C
:100970008C9348CF1230A9F440E063E0CE01019699
:100980000E94330242E063E0CE0101960E943302EE
:1009900045E063E0CE0101960E94330210924202CC
:1009A00045CF1230D8F73FCFE3E4F2E01382128252
:1009B00088EE93E0A0E0B0E084839583A683B783BC
:1009C0008AE091E09183808385EC90E0958784872D
:1009D00084EC90E09787868780EC90E0918B808B09
:1009E00081EC90E0938B828B82EC90E0958B848BF2
:1009F00086EC90E0978B868B118E128E138E148E60
:100A000008952F923F924F925F926F927F928F92B2
:100A10009F92AF92BF92CF92DF92EF92FF920F938D
:100A20001F93CF93DF93CDB7DEB7CA1BDB0B0FB697
:100A3000F894DEBF0FBECDBF09942A883988488854
:100A40005F846E847D848C849B84AA84B984C884EA
:100A5000DF80EE80FD800C811B81AA81B981CE0FE1
:100A6000D11D0FB6F894DEBF0FBECDBFED010895C6
:100A7000EE0FFF1F0590F491E02D09940F931F9343
:100A8000CF93DF938230910510F482E090E0E09103
:100A9000E202F091E30230E020E0B0E0A0E0309725
:100AA00099F42115310509F44AC0281B390B24306B
:100AB0003105D8F58A819B816115710589F1FB01AA
:100AC00093838283FE0111C0408151810281138191
:100AD00048175907E0F04817590799F4109761F043
:100AE00012960C93129713961C933296CF01DF91B6
:100AF000CF911F910F9108950093E2021093E302AA
:100B0000F4CF2115310551F04217530738F0A901F0
:100B1000DB019A01BD01DF01F801C1CFEF01F9CF7F
:100B20009093E3028093E202CDCFFE01E20FF31F28
:100B3000819391932250310939832883D7CF209113
:100B4000E0023091E102232B41F420910201309127
:100B500003013093E1022093E002209100013091E3
:100B600001012115310541F42DB73EB74091040133
:100B700050910501241B350BE091E002F091E10258
:100B8000E217F307A0F42E1B3F0B2817390778F064
:100B9000AC014E5F5F4F2417350748F04E0F5F1FC3
:100BA0005093E1024093E002819391939FCFF0E054
:100BB000E0E09CCFCF93DF930097E9F0FC01329700
:100BC00013821282A091E202B091E302ED0130E0C3
:100BD00020E01097A1F420813181820F931F209192
:100BE000E0023091E1022817390709F061C0F09363
:100BF000E102E093E002DF91CF910895EA01CE1780
:100C0000DF07E8F54A815B819E0141155105B1F787
:100C1000E901FB83EA8349915991C40FD51FEC1771
:100C2000FD0761F4808191810296840F951FE9018F
:100C300099838883828193819B838A83F0E0E0E0BB
:100C400012968D919C9113970097B9F52D913C9137
:100C50001197CD010296820F931F2091E0023091EF
:100C6000E1022817390739F6309751F51092E3025F
:100C70001092E202B093E102A093E002BCCFD383D2
:100C8000C28340815181840F951FC817D90761F431
:100C90004E5F5F4F88819981480F591F5183408370
:100CA0008A819B81938382832115310509F0B0CF1E
:100CB000F093E302E093E2029ECFFD01DC01C0CF9E
:100CC00013821282D7CFB0E0A0E0E9E6F6E00C9400
:100CD00003058C01009751F4CB010E943E058C0165
:100CE000C801CDB7DEB7E0E10C941F05FC01E60FAB
:100CF000F71F9C0122503109E217F30708F49DC049
:100D0000D901CD91DC911197C617D70798F0C5305E
:100D1000D10530F3CE0104978617970708F3C61B59
:100D2000D70B2297C193D1936D937C93CF010E94EF
:100D3000DA05D6CF5B01AC1ABD0A4C018C0E9D1EA4
:100D4000A091E202B091E302512C412CF12CE12C54
:100D5000109731F58091E0029091E1028815990594
:100D600009F05CC04616570608F058C08091000193
:100D700090910101009741F48DB79EB74091040115
:100D800050910501841B950BE817F90708F055C031
:100D9000F093E102E093E002F90171836083A0CF58
:100DA0008D919C91119712966C90129713967C904E
:100DB0001397A815B90559F56C0142E0C40ED11C72
:100DC000CA14DB0420F1AC014A195B09DA0112965E
:100DD000159780F06282738251834083D9016D93AD
:100DE0007C93E114F10471F0D7011396FC93EE9318
:100DF000129776CF22968C0F9D1FF90191838083E5
:100E0000F301EFCFF093E302E093E20269CF4816DB
:100E1000590608F42C017D01D3019ACFCB010E9421
:100E20003E057C01009749F0AE01B8010E94200701
:100E3000C8010E94DA05870153CF10E000E050CFCF
:100E4000FB01DC0102C001900D9241505040D8F7E7
:100E50000895FB01DC0101900D920020E1F7089557
:100E6000F894FFCF0000E4028000000000006F0152
:100E7000CF00FC00BC012D010B011F014D696E6903
:100E80006E6B6F76204B6F737469616E74796E2030
:0C0E90004D616B73796D6F7679636800BB
:107E0000112484B714BE81FFF0D085E080938100F7
:107E100082E08093C00088E18093C10086E0809377
:107E2000C20080E18093C4008EE0C9D0259A86E02C
:107E300020E33CEF91E0309385002093840096BBD3
:107E4000B09BFECF1D9AA8958150A9F7CC24DD24C4
:107E500088248394B5E0AB2EA1E19A2EF3E0BF2EE7
:107E6000A2D0813461F49FD0082FAFD0023811F036
:107E7000013811F484E001C083E08DD089C08234E0
:107E800011F484E103C0853419F485E0A6D080C0E4
:107E9000853579F488D0E82EFF2485D0082F10E0AE
:107EA000102F00270E291F29000F111F8ED06801E7
:107EB0006FC0863521F484E090D080E0DECF843638
:107EC00009F040C070D06FD0082F6DD080E0C81688
:107ED00080E7D80618F4F601B7BEE895C0E0D1E017
:107EE00062D089930C17E1F7F0E0CF16F0E7DF06D8
:107EF00018F0F601B7BEE89568D007B600FCFDCFD4
:107F0000A601A0E0B1E02C9130E011968C91119780
:107F100090E0982F8827822B932B1296FA010C0160
:107F200087BEE89511244E5F5F4FF1E0A038BF0790
:107F300051F7F601A7BEE89507B600FCFDCF97BE46
:107F4000E89526C08437B1F42ED02DD0F82E2BD052
:107F50003CD0F601EF2C8F010F5F1F4F84911BD097
:107F6000EA94F801C1F70894C11CD11CFA94CF0C13
:107F7000D11C0EC0853739F428D08EE10CD085E9AC
:107F80000AD08FE07ACF813511F488E018D01DD067
:107F900080E101D065CF982F8091C00085FFFCCF94
:107FA0009093C60008958091C00087FFFCCF809118
:107FB000C00084FD01C0A8958091C6000895E0E648
:107FC000F0E098E1908380830895EDDF803219F02E
:107FD00088E0F5DFFFCF84E1DECF1F93182FE3DFCA
:107FE0001150E9F7F2DF1F91089580E0E8DFEE27F6
:047FF000FF270994CA
:027FFE00040479
:00000001FF
