:020000040000FA
:100000000C945D000C9485000C9485000C94850084
:100010000C9485000C9485000C9485000C9485004C
:100020000C9485000C9485000C9485000C9485003C
:100030000C9485000C9485000C9485000C9485002C
:100040000C948B020C9485000C9459020C9433028E
:100050000C9485000C9485000C9485000C9485000C
:100060000C9485000C9485000000000024002700FB
:100070002A0000000000250028002B0004040404CE
:100080000404040402020202020203030303030342
:10009000010204081020408001020408102001021F
:1000A00004081020000000080002010000030407FB
:1000B0000000000000000000B20411241FBECFEFBA
:1000C000D8E0DEBFCDBF22E0A4E2B1E001C01D92C6
:1000D000A03DB207E1F711E0A0E0B1E0E0E2FEE010
:1000E00002C005900D92A432B107D9F710E0CDE51A
:1000F000D0E004C02197FE010E941605CC35D1073F
:10010000C9F70E94D5020C940E070C940000E6EA91
:10011000F0E02491E2E9F0E09491EEE7F0E0E49180
:10012000EE23C9F0222339F0233001F1A8F4213065
:1001300019F1223029F1F0E0EE0FFF1FEE58FF4FCA
:10014000A591B4912FB7F894EC91811126C09095A8
:100150009E239C932FBF08952730A9F02830C9F023
:10016000243049F7209180002F7D03C0209180002A
:100170002F7720938000DFCF24B52F7724BDDBCFEE
:1001800024B52F7DFBCF2091B0002F772093B000B6
:10019000D2CF2091B0002F7DF9CF9E2BDACFAF9236
:1001A000BF92CF92DF92EF92FF920F931F93CF9364
:1001B000DF936C017B018B01040F151FEB015E01C6
:1001C000AE18BF08C017D10759F06991D601ED915B
:1001D000FC910190F081E02DC6010995892B79F7FA
:1001E000C501DF91CF911F910F91FF90EF90DF90AC
:1001F000CF90BF90AF900895FC01538D448D252F73
:1002000030E0842F90E0821B930B541710F0CF96B0
:10021000089501970895FC01918D828D981761F0E2
:10022000A28DAE0FBF2FB11D5D968C91928D9F5FF9
:100230009F73928F90E008958FEF9FEF0895FC01D8
:10024000918D828D981731F0828DE80FF11D858D8B
:1002500090E008958FEF9FEF0895FC01918D228D1E
:10026000892F90E0805C9F4F821B91098F739927A3
:1002700008958FE292E00E942D0121E0892B09F47C
:1002800020E0822F089580E090E0892B29F00E94E1
:10029000390181110C9400000895FC01A48DA80F70
:1002A000B92FB11DA35ABF4F2C91848D90E00196B8
:1002B0008F739927848FA689B7892C93A089B189D8
:1002C0008C91837080648C93938D848D981306C079
:1002D0000288F389E02D80818F7D80830895EF92DD
:1002E000FF920F931F93CF93DF93EC0181E0888FF0
:1002F0009B8D8C8D98131AC0E889F989808185FFC0
:1003000015C09FB7F894EE89FF896083E889F98961
:1003100080818370806480839FBF81E090E0DF9163
:10032000CF911F910F91FF90EF900895F62E0B8DB6
:1003300010E00F5F1F4F0F731127E02E8C8D8E1171
:100340000CC00FB607FCFACFE889F989808185FFD8
:10035000F5CFCE010E944D01F1CFEB8DEC0FFD2FBB
:10036000F11DE35AFF4FF0829FB7F8940B8FEA8993
:10037000FB8980818062CFCFCF93DF93EC01888DA2
:100380008823B9F0AA89BB89E889F9898C9185FD10
:1003900003C0808186FD0DC00FB607FCF7CF8C919E
:1003A00085FFF2CF808185FFEDCFCE010E944D0108
:1003B000E9CFDF91CF9108953FB7F894809129015B
:1003C00090912A01A0912B01B0912C0126B5A89BF8
:1003D00005C02F3F19F00196A11DB11D3FBFBA2FD7
:1003E000A92F982F8827BC01CD01620F711D811D97
:1003F000911D42E0660F771F881F991F4A95D1F71C
:1004000008958F929F92AF92BF92CF92DF92EF9218
:10041000FF924B015C010E94DC016B017C010E9498
:10042000DC016C197D098E099F09683E73408105C6
:100430009105A8F321E0821A9108A108B10888EE7D
:10044000C80E83E0D81EE11CF11C81149104A104A4
:10045000B10429F7FF90EF90DF90CF90BF90AF905D
:100460009F908F9008951F920F920FB60F921124B4
:100470002F933F934F935F936F937F938F939F93AC
:10048000AF93BF93EF93FF938FE292E00E944D01F1
:10049000FF91EF91BF91AF919F918F917F916F915C
:1004A0005F914F913F912F910F900FBE0F901F9032
:1004B00018951F920F920FB60F9211242F938F93BE
:1004C0009F93EF93FF93E0913F02F0914002808170
:1004D000E0914502F091460282FD1BC0908180911F
:1004E00048028F5F8F7320914902821741F0E0919B
:1004F0004802F0E0E15DFD4F958F80934802FF9147
:10050000EF919F918F912F910F900FBE0F901F90A1
:1005100018958081F4CF1F920F920FB60F9211247D
:100520002F933F938F939F93AF93BF938091250118
:1005300090912601A0912701B091280130912401CA
:1005400023E0230F2D3758F50196A11DB11D2093EF
:1005500024018093250190932601A0932701B09355
:1005600028018091290190912A01A0912B01B0913D
:100570002C010196A11DB11D8093290190932A01A0
:10058000A0932B01B0932C01BF91AF919F918F91BC
:100590003F912F910F900FBE0F901F90189526E856
:1005A000230F0296A11DB11DD2CFCF93DF93CDB7FC
:1005B000DEB7E2970FB6F894DEBF0FBECDBF7894DA
:1005C00084B5826084BD84B5816084BD85B5826058
:1005D00085BD85B5816085BD80916E008160809309
:1005E0006E00109281008091810082608093810072
:1005F0008091810081608093810080918000816082
:10060000809380008091B10084608093B1008091DC
:10061000B00081608093B00080917A008460809304
:100620007A0080917A00826080937A0080917A00CB
:10063000816080937A0080917A00806880937A004C
:100640001092C100EEE2F1E030E020E040E7822FBE
:1006500098E0582F880F57FD84279150D1F7819348
:100660002F5F3F4F211581E0380789F7E0913F0266
:10067000F091400282E08083E0913B02F0913C02E5
:100680001082E0913D02F0913E028AE88083109250
:100690004702E0914302F091440286E08083E091BA
:1006A0004102F0914202808180618083E0914102A9
:1006B000F0914202808188608083E0914102F09154
:1006C0004202808180688083E0914102F091420281
:1006D00080818F7D8083E2E9F0E02491EEE7F0E015
:1006E0008491882399F090E0880F991FFC01E859C4
:1006F000FF4FA591B491FC01EE58FF4F8591949165
:100700008FB7F894EC91E22BEC938FBF80E00E94BE
:10071000870004E010E050E2F52E8FE292E00E94A4
:100720002D01892B09F471C08FE292E00E940B0128
:10073000853A09F06AC064E170E080E090E00E94D0
:1007400001026BE070E090E080E00E9441066C01E5
:1007500070E060E0009741F0DC011C9268E171E01C
:100760000E9407076AE070E020E030E045E5E42EF3
:10077000432F50E046175707D8F42233C8F4832F8D
:10078000837009F44FC04C0D5D1DC114D10421F4D8
:1007900010922D014DE251E0E1E0F0E0EC0FFD1F81
:1007A000E20FF11DDA018C9180833F5F2F5FE0CF74
:1007B000CB018370992761FD71C0C114D10419F078
:1007C000C6010E94B80590912E02913009F0AEC08A
:1007D000898183FDA9C0886089839F5F90932E02E1
:1007E00081E00E94870042E350E0BE016F5F7F4FCF
:1007F0008FE292E00E94CF0064E670E080E090E03B
:100800000E94010280E00E94870080E090E0892B36
:1008100009F483CF0E943901882309F47CCF0E9418
:10082000000079CF332309F4AECF822F90E0EDEFB3
:10083000FFEFEC0FFD1FE80FF91FE081F0E0E25D34
:10084000FE4FAEEFBFEFAC0FBD1FA80FB91FE08189
:10085000FC91EF27F0E0AFEFBFEFAC0FBD1FA80F8B
:10086000B91FE25DFE4FAC91E081AE27B0E0FE0122
:10087000E80FF91FA25DBE4FE081FC91EF27F0E089
:10088000E25DFE4FE081A1E0B0E0AC0FBD1F8A0F3A
:100890009B1FEE25DC01EC932F5F75CF30E0B80194
:1008A000681B790B822F830F90E041E050E04C0FE2
:1008B0005D1F480F591F3617170624F4FA01F082FE
:1008C0003F5FF0CFEDEFFFEFEC0FFD1FE80FF91FDB
:1008D000E081F0E0E25DFE4FAEEFBFEFAC0FBD1F79
:1008E000A80FB91FE0812C91E227F0E0AFEFBFEF36
:1008F000AC0FBD1FA80FB91FE25DFE4FAC91208168
:10090000A227B0E08C0F9D1FA25DBE4FFC0190811D
:100910008C91E92FE827F0E0E25DFE4F808195E5BC
:100920008927DA018C9349CF877F56CF9230B9F46B
:100930008A8183FD10C088608A838A81282F30E0F5
:10094000220F232F221F330B232B39F480688A8335
:1009500010922E0245CF877FEFCF8F77F8CF92305E
:10096000B8F73BCFEFE2F2E01382128288EE93E019
:10097000A0E0B0E084839583A683B7838AE091E00A
:100980009183808385EC90E09587848784EC90E068
:100990009787868780EC90E0918B808B81EC90E04C
:1009A000938B828B82EC90E0958B848B86EC90E02D
:1009B000978B868B118E128E138E148E08952F9224
:1009C0003F924F925F926F927F928F929F92AF92DF
:1009D000BF92CF92DF92EF92FF920F931F93CF932C
:1009E000DF93CDB7DEB7CA1BDB0B0FB6F894DEBFC3
:1009F0000FBECDBF09942A88398848885F846E84E9
:100A00007D848C849B84AA84B984C884DF80EE8032
:100A1000FD800C811B81AA81B981CE0FD11D0FB63B
:100A2000F894DEBF0FBECDBFED010895EE0FFF1F9E
:100A30000590F491E02D09940F931F93CF93DF93CA
:100A40008230910510F482E090E0E091CE02F091C6
:100A5000CF0230E020E0B0E0A0E0309799F421151B
:100A6000310509F44AC0281B390B24303105D8F56B
:100A70008A819B816115710589F1FB0193838283D2
:100A8000FE0111C04081518102811381481759072D
:100A9000E0F04817590799F4109761F012960C93FB
:100AA000129713961C933296CF01DF91CF911F912D
:100AB0000F9108950093CE021093CF02F4CF211529
:100AC000310551F04217530738F0A901DB019A01B3
:100AD000BD01DF01F801C1CFEF01F9CF9093CF0243
:100AE0008093CE02CDCFFE01E20FF31F819391934D
:100AF0002250310939832883D7CF2091CC023091FD
:100B0000CD02232B41F42091020130910301309357
:100B1000CD022093CC0220910001309101012115DA
:100B2000310541F42DB73EB74091040150910501C4
:100B3000241B350BE091CC02F091CD02E217F307B4
:100B4000A0F42E1B3F0B2817390778F0AC014E5F3D
:100B50005F4F2417350748F04E0F5F1F5093CD02AB
:100B60004093CC02819391939FCFF0E0E0E09CCF43
:100B7000CF93DF930097E9F0FC0132971382128242
:100B8000A091CE02B091CF02ED0130E020E01097AD
:100B9000A1F420813181820F931F2091CC023091EA
:100BA000CD022817390709F061C0F093CD02E09318
:100BB000CC02DF91CF910895EA01CE17DF07E8F567
:100BC0004A815B819E0141155105B1F7E901FB8323
:100BD000EA8349915991C40FD51FEC17FD0761F4C1
:100BE000808191810296840F951FE9019983888302
:100BF000828193819B838A83F0E0E0E012968D915D
:100C00009C9113970097B9F52D913C911197CD01C7
:100C10000296820F931F2091CC023091CD022817AB
:100C2000390739F6309751F51092CF021092CE0263
:100C3000B093CD02A093CC02BCCFD383C2834081BA
:100C40005181840F951FC817D90761F44E5F5F4F1C
:100C500088819981480F591F518340838A819B81E4
:100C6000938382832115310509F0B0CFF093CF0231
:100C7000E093CE029ECFFD01DC01C0CF1382128231
:100C8000D7CFB0E0A0E0E7E4F6E00C94E1048C01FB
:100C9000009751F4CB010E941C058C01C801CDB70F
:100CA000DEB7E0E10C94FD04FC01E60FF71F9C01A8
:100CB00022503109E217F30708F49DC0D901CD9104
:100CC000DC911197C617D70798F0C530D10530F3DE
:100CD000CE0104978617970708F3C61BD70B2297F8
:100CE000C193D1936D937C93CF010E94B805D6CF69
:100CF0005B01AC1ABD0A4C018C0E9D1EA091CE0268
:100D0000B091CF02512C412CF12CE12C109731F5F0
:100D10008091CC029091CD028815990509F05CC0B4
:100D20004616570608F058C08091000190910101C5
:100D3000009741F48DB79EB7409104015091050191
:100D4000841B950BE817F90708F055C0F093CD0206
:100D5000E093CC02F90171836083A0CF8D919C91C7
:100D6000119712966C90129713967C901397A81572
:100D7000B90559F56C0142E0C40ED11CCA14DB045C
:100D800020F1AC014A195B09DA011296159780F03F
:100D90006282738251834083D9016D937C93E11405
:100DA000F10471F0D7011396FC93EE93129776CF6E
:100DB00022968C0F9D1FF90191838083F301EFCF61
:100DC000F093CF02E093CE0269CF4816590608F49B
:100DD0002C017D01D3019ACFCB010E941C057C011F
:100DE000009749F0AE01B8010E94FE06C8010E94BA
:100DF000B805870153CF10E000E050CFFB01DC01C4
:100E000002C001900D9241505040D8F70895FB0167
:100E1000DC0101900D920020E1F70895F894FFCFD6
:100E20000000D0028000000000006F01CF00FC0035
:100E3000BC012D010B011F0131352E30352E323012
:040E4000303300004B
:107E0000112484B714BE81FFF0D085E080938100F7
:107E100082E08093C00088E18093C10086E0809377
:107E2000C20080E18093C4008EE0C9D0259A86E02C
:107E300020E33CEF91E0309385002093840096BBD3
:107E4000B09BFECF1D9AA8958150A9F7CC24DD24C4
:107E500088248394B5E0AB2EA1E19A2EF3E0BF2EE7
:107E6000A2D0813461F49FD0082FAFD0023811F036
:107E7000013811F484E001C083E08DD089C08234E0
:107E800011F484E103C0853419F485E0A6D080C0E4
:107E9000853579F488D0E82EFF2485D0082F10E0AE
:107EA000102F00270E291F29000F111F8ED06801E7
:107EB0006FC0863521F484E090D080E0DECF843638
:107EC00009F040C070D06FD0082F6DD080E0C81688
:107ED00080E7D80618F4F601B7BEE895C0E0D1E017
:107EE00062D089930C17E1F7F0E0CF16F0E7DF06D8
:107EF00018F0F601B7BEE89568D007B600FCFDCFD4
:107F0000A601A0E0B1E02C9130E011968C91119780
:107F100090E0982F8827822B932B1296FA010C0160
:107F200087BEE89511244E5F5F4FF1E0A038BF0790
:107F300051F7F601A7BEE89507B600FCFDCF97BE46
:107F4000E89526C08437B1F42ED02DD0F82E2BD052
:107F50003CD0F601EF2C8F010F5F1F4F84911BD097
:107F6000EA94F801C1F70894C11CD11CFA94CF0C13
:107F7000D11C0EC0853739F428D08EE10CD085E9AC
:107F80000AD08FE07ACF813511F488E018D01DD067
:107F900080E101D065CF982F8091C00085FFFCCF94
:107FA0009093C60008958091C00087FFFCCF809118
:107FB000C00084FD01C0A8958091C6000895E0E648
:107FC000F0E098E1908380830895EDDF803219F02E
:107FD00088E0F5DFFFCF84E1DECF1F93182FE3DFCA
:107FE0001150E9F7F2DF1F91089580E0E8DFEE27F6
:047FF000FF270994CA
:027FFE00040479
:00000001FF
