:100000000C9427010C9458010C9458010C9458013D
:100010000C9458010C9458010C9458010C945801FC
:100020000C9458010C9458010C9458010C945801EC
:100030000C9458010C9401030C9458010C94580131
:100040000C9458010C94E6030C9458010C9458013C
:100050000C9458010C9458010C9458010C94B7025C
:100060000C9458010C9458010C9458010C945801AC
:100070000C9458010C9458010C9458010C9458019C
:100080000C9458010C9458010C9458010C9458018C
:100090000C9458010C9458010C9458010C9458017C
:1000A0000C9458010C9458010C9458010C9458016C
:1000B0000C9458010C9458010C9458010C9458015C
:1000C0000C9458010C9458010C9458010C9458014C
:1000D0000C9458010C9458010C9458010C9458013C
:1000E0000C9458010C94A5010C949D010C94BD0135
:1000F0000C94AF010C948D010C9486010C94B90101
:100100000C94A1010C9478010C94AB010C9405069D
:100110000C947E010C94B8010C948A010C94820119
:100120000C94B3010C9493010C94970100002100EE
:10013000240027002A002D003000330001010000B8
:10014000040107010A0100002200250028002B00FD
:100150002E003100340002010000050108010B01EE
:10016000000020002300260029002C002F00320070
:100170000001000003010601090105050505070549
:1001800008080808020202020A0A08080404040413
:10019000010101010101010103030303030303033F
:1001A000040707070C0C0C0C0C0C0C0C02020202CE
:1001B00006060606060606060B0B0B0B0B0B0B0BB7
:1001C0000102102020080810204010204080020169
:1001D000020108040201010204081020408080404E
:1001E000201008040201800402018040201008044D
:1001F00002010804020101020408102040800102EB
:1002000004081020408000000A0B02090C0D0E08A3
:1002100007030401000000000000000000000000CF
:1002200000000000000000000000000000000000CE
:10023000000012111000000000000000000000008B
:10024000000000000000000000000000050611246E
:100250001FBECFEFD1E2DEBFCDBF00E00CBF12E08A
:10026000A0E0B2E0EAEFFCE000E00BBF02C00790C4
:100270000D92A435B107D9F722E0A4E5B2E001C0A0
:100280001D92AA38B207E1F711E0C7E2D1E000E021
:1002900006C021970109802FFE010E945F06C63229
:1002A000D10780E00807A9F70E945A040C947B0646
:1002B0000C9400008150823108F05AC0E82FF0E021
:1002C0008827EA59FE4F8F4F0C945F0686018A01FA
:1002D00078017E018201B8018D01930197019D0192
:1002E000A101A501AB01AF01B801B301B901BD0185
:1002F000809180008F7780938000089580918000A6
:100300008F7DF9CF80918000877FF5CF84B58F777F
:1003100084BD089584B58F7DFBCF8091B0008F7729
:100320008093B00008958091B0008F7DF9CF8091C7
:1003300090008F77809390000895809190008F7D3A
:10034000F9CF80919000877FF5CF8091A0008F77C3
:100350008093A00008958091A0008F7DF9CF8091B7
:10036000A000877FF5CF809120018F7780932001B7
:100370000895809120018F7DF9CF80912001877FA2
:10038000F5CFCF93DF93282F30E0F901EA5FFD4FDF
:100390008491F901E054FE4FD491F901E658FE4FE3
:1003A000C491CC23A1F081110E945A01EC2FF0E0FE
:1003B000EE0FFF1FE05AFE4FA591B491EC91ED2393
:1003C00081E090E009F480E0DF91CF91089580E032
:1003D00090E0FACF1F93CF93DF93282F30E0F901FD
:1003E000EA5FFD4F8491F901E054FE4FD491F90189
:1003F000E658FE4FC491CC23A9F0162F81110E941C
:100400005A01EC2FF0E0EE0FFF1FEA5BFE4FA591C3
:10041000B4918FB7F894EC91111108C0D095DE23F8
:10042000DC938FBFDF91CF911F910895DE2BF8CF22
:10043000CF93DF9390E0FC01E054FE4F2491865867
:100440009E4FFC0184918823D1F090E0880F991F82
:10045000FC01E45DFE4FA591B491FC01EA5BFE4F07
:10046000C591D491623071F49FB7F8943C91822F7A
:10047000809583238C93E8812E2B28839FBFDF9167
:10048000CF9108958FB7F894EC912E2B2C938FBFBA
:10049000F6CFEF92FF920F931F93CF93DF938823B2
:1004A00001F196E4E92E92E0F92EC6E0D2E0F701E0
:1004B00001917F011991602F812F0E94EA01602F25
:1004C000812F0E94EA01F2E0CD30DF0781F760E082
:1004D00089E1DF91CF911F910F91FF90EF900C94E4
:1004E000EA01CEE0D2E086E0E82E82E0F82E099123
:1004F000F70111917F01602F812F0E94EA01602F87
:10050000812F0E94EA01F2E0C531DF0781F7DF9118
:10051000CF911F910F91FF90EF900895EF92FF926E
:100520000F931F93CF93DF938A30D0F496E0E92E98
:1005300092E0F92E97E0899FE001112410E000E09D
:10054000F801EC0FFD1FE25FFD4F6081F701819123
:100550007F010E94EA010F5F1F4F0730110581F7ED
:10056000DF91CF911F910F91FF90EF9008951F920F
:100570000F920FB60F9211242F933F938F939F9357
:10058000AF93BF938091760290917702A091780209
:10059000B091790230915B0223E0230F2D3758F59B
:1005A0000196A11DB11D20935B028093760290936A
:1005B0007702A0937802B0937902809157029091CC
:1005C0005802A0915902B0915A020196A11DB11D85
:1005D0008093570290935802A0935902B0935A0205
:1005E000BF91AF919F918F913F912F910F900FBE2F
:1005F0000F901F90189526E8230F0296A11DB11D9C
:10060000D2CF1F920F920FB60F9211240BB60F92FA
:10061000AF92BF92CF92DF92EF92FF920F931F9310
:100620002F933F934F935F936F937F938F939F93FA
:10063000AF93BF93CF93EF93FF93C0915402EC2FEE
:10064000F0E0E050FE4F808190918802992309F4F8
:100650006AC0B0908902E0908202F0908302C0905C
:100660008602D090870260E00E94EA01C53089F5D9
:1006700010925402C0915402EC2FF0E0E050FE4F73
:1006800061E080810E94EA0106E012E060E0F8018A
:1006900081918F010E94EA01F2E00D301F07B1F74E
:1006A00060E08DE10E94EA01C23009F489C0A8F43B
:1006B000CC2309F47CC0C601C130A9F46AE070E023
:1006C0000E944B060E948E0261E08DE10E94EA01C9
:1006D0000AC0CF5FC0935402CDCFC43001F108F4FB
:1006E00071C0C530E1F0FF91EF91CF91BF91AF9113
:1006F0009F918F917F916F915F914F913F912F913A
:100700001F910F91FF90EF90DF90CF90BF90AF902F
:100710000F900BBE0F900FBE0F901F9018958B2D52
:100720000E944902E0CF0091550210915602E090DC
:100730008002F0908102C0908402D090850260E037
:100740000E94EA01C53079F510925402C09154021A
:10075000EC2FF0E0E050FE4F61E080810E94EA0162
:1007600086E0A82E82E0B82E60E0F50181915F015D
:100770000E94EA01FDE0AF16F2E0BF06A9F760E0D3
:100780008DE10E94EA01C230D9F008F491CFC43063
:10079000D9F0C0F0C53009F0A6CFC8016AE070E01A
:1007A0000E944B060AC0CF5FC0935402CFCFC60150
:1007B0006AE070E00E944B06862F0E948E0293CF63
:1007C000C701F6CFC7017ACFC801F2CF1F920F92AF
:1007D0000FB60F9211242F933F934F935F938F93F4
:1007E0009F938091550290915602CC9769F4809125
:1007F0008002909181021092560210925502019649
:10080000909381028093800220915502309156028C
:100810008091800290918102CC9781F4211531055D
:1008200069F48091840290918502019690938502EB
:10083000809384021092810210928002409184027F
:10084000509185028091800290918102483151053A
:1008500061F4009751F4232B41F410928502109219
:100860008402109256021092550220918402309117
:1008700085022831310524F01092850210928402FD
:10088000CC9724F010928102109280028091550240
:1008900090915602019690935602809355029F9133
:1008A0008F915F914F913F912F910F900FBE0F90BD
:1008B0001F901895789484B5826084BD84B581605A
:1008C00084BD85B5826085BD85B5816085BD80911B
:1008D0006E00816080936E00109281008091810093
:1008E000826080938100809181008160809381008B
:1008F000809180008160809380008091B10084604D
:100900008093B1008091B00081608093B0008091AD
:10091000910082608093910080919100816080932A
:100920009100809190008160809390008091A1005F
:1009300082608093A1008091A10081608093A100DA
:100940008091A00081608093A0008091210182604D
:100950008093210180912101816080932101809108
:10096000200181608093200180917A0084608093CF
:100970007A0080917A00826080937A0080917A0078
:10098000816080937A0080917A00806880937A00F9
:100990001092C10062E089E30E94180262E08AE3DB
:1009A0000E94180262E08BE30E94180262E08CE36E
:1009B0000E94180261E085E20E941802CCE5D2E0B4
:1009C0008881229661E00E94180282E0C837D80729
:1009D000B9F7F894109280009DE09093810082E036
:1009E00080936F0021E73BE03093890020938800DB
:1009F0001092B0009093B1008093700080E18093DA
:100A0000B3007894C0E0D0E080918902882309F493
:100A100053C08091880281114FC02091860230918D
:100A2000870280918402909185022817390709F086
:100A300043C0209182023091830280918002909184
:100A4000810228173907C1F58FB7F89440917602D3
:100A50005091770260917802709179028FBF8091F6
:100A60007E0290917F02092E000CAA0BBB0B8856C8
:100A7000954CAF4FBF4F481759076A077B07C0F423
:100A800061E085E20E94EA0189E30E94C101892BAD
:100A900079F48AE30E94C101892B51F48BE30E940F
:100AA000C101892B29F48CE30E94C101892B61F2D9
:100AB00060E085E20E94EA011091880211112CC0C9
:100AC00089E30E94C10120917D02892B09F07BC03E
:100AD00021110CC08091840290918502019690931F
:100AE00085028093840281E080937D028AE30E94E4
:100AF000C10120917C02892B09F06BC021110CC02F
:100B0000809180029091810201969093810280935E
:100B1000800281E080937C028BE30E94C1012091DE
:100B20007B02892B09F05BC0211106C081E01827E8
:100B30001093880280937B02809188028823E9F1D8
:100B40008CE30E94C10120917A02892B09F04DC0EB
:100B5000211108C08091890291E089278093890240
:100B600090937A0289E30E94C10120917D02892B32
:100B700009F041C021110CC080918602909187023A
:100B80000196909387028093860281E080937D0294
:100B90008AE30E94C10120917C02892B89F52111F1
:100BA0000CC08091820290918302019690938302FF
:100BB0008093820281E080937C02209709F424CF05
:100BC0000E94000021CF222309F490CF10927D02D1
:100BD0008DCF222309F4A0CF10927C029DCF222337
:100BE00009F4AACF10927B02A7CF222309F4BACF2F
:100BF00010927A02B7CF222359F210927D02C8CF09
:100C00002223D9F210927C02D8CFECE5F2E086E103
:100C100090E09183808387E190E09383828388E1F1
:100C200090E09583848389E190E0978386838AE1CD
:100C300090E0918780878BE190E0938782878CE1B9
:100C400090E09587848785E190E09787868784E1A7
:100C500090E0918B808B83E190E0938B828B82E19B
:100C600090E0958B848B81E190E0978B868B80E17F
:100C700090E0918F808F2FB7F894809176029091B9
:100C80007702A0917802B09179022FBF90937F02F2
:100C900080937E02089597FB072E16F4009407D0E8
:100CA00077FD09D00E94670607FC05D03EF49095B9
:100CB00081959F4F0895709561957F4F0895EE0F30
:100CC000FF1F881F8BBF0790F691E02D1994AA1B78
:100CD000BB1B51E107C0AA1FBB1FA617B70710F027
:100CE000A61BB70B881F991F5A95A9F78095909559
:0A0CF000BC01CD010895F894FFCF78
:100CFA00151413121110161718191A1B1C1D0101AD
:100D0A0001010101000001010000000001010001D0
:100D1A0001000101010101000001000101000001BF
:100D2A0001010001010001010100010101010101AC
:100D3A00010100000000010101010101010101019D
:040D4A0001000101A2
:00000001FF
